{
  "_format": "hh-sol-artifact-1",
  "contractName": "WavePortal",
  "sourceName": "contracts/WavePortal.sol",
  "abi": [
    {
      "inputs": [],
      "stateMutability": "payable",
      "type": "constructor"
    },
    {
      "anonymous": false,
      "inputs": [
        {
          "indexed": true,
          "internalType": "address",
          "name": "from",
          "type": "address"
        },
        {
          "indexed": false,
          "internalType": "uint256",
          "name": "timestamp",
          "type": "uint256"
        },
        {
          "indexed": false,
          "internalType": "string",
          "name": "message",
          "type": "string"
        }
      ],
      "name": "NewWave",
      "type": "event"
    },
    {
      "inputs": [],
      "name": "getAllWaves",
      "outputs": [
        {
          "components": [
            {
              "internalType": "address",
              "name": "waver",
              "type": "address"
            },
            {
              "internalType": "string",
              "name": "message",
              "type": "string"
            },
            {
              "internalType": "uint256",
              "name": "timestamp",
              "type": "uint256"
            }
          ],
          "internalType": "struct WavePortal.Wave[]",
          "name": "",
          "type": "tuple[]"
        }
      ],
      "stateMutability": "view",
      "type": "function"
    },
    {
      "inputs": [],
      "name": "getTotalWaves",
      "outputs": [
        {
          "internalType": "uint256",
          "name": "",
          "type": "uint256"
        }
      ],
      "stateMutability": "view",
      "type": "function"
    },
    {
      "inputs": [
        {
          "internalType": "address",
          "name": "",
          "type": "address"
        }
      ],
      "name": "lastWave",
      "outputs": [
        {
          "internalType": "uint256",
          "name": "",
          "type": "uint256"
        }
      ],
      "stateMutability": "view",
      "type": "function"
    },
    {
      "inputs": [
        {
          "internalType": "address",
          "name": "_useraddress",
          "type": "address"
        }
      ],
      "name": "numberOfWaves",
      "outputs": [],
      "stateMutability": "view",
      "type": "function"
    },
    {
      "inputs": [
        {
          "internalType": "string",
          "name": "_message",
          "type": "string"
        }
      ],
      "name": "wave",
      "outputs": [],
      "stateMutability": "payable",
      "type": "function"
    },
    {
      "inputs": [
        {
          "internalType": "address",
          "name": "",
          "type": "address"
        }
      ],
      "name": "waveInfo",
      "outputs": [
        {
          "internalType": "uint256",
          "name": "",
          "type": "uint256"
        }
      ],
      "stateMutability": "view",
      "type": "function"
    }
  ],
  "bytecode": "0x608060405262000033604051806060016040528060248152602001620016de602491396200005b60201b620007da1760201c565b60644442620000439190620001a8565b6200004f919062000245565b600081905550620002ec565b620000fb8160405160240162000072919062000168565b6040516020818303038152906040527f41304fac000000000000000000000000000000000000000000000000000000007bffffffffffffffffffffffffffffffffffffffffffffffffffffffff19166020820180517bffffffffffffffffffffffffffffffffffffffffffffffffffffffff8381831617835250505050620000fe60201b60201c565b50565b60008151905060006a636f6e736f6c652e6c6f679050602083016000808483855afa5050505050565b600062000134826200018c565b62000140818562000197565b9350620001528185602086016200020f565b6200015d81620002db565b840191505092915050565b6000602082019050818103600083015262000184818462000127565b905092915050565b600081519050919050565b600082825260208201905092915050565b6000620001b58262000205565b9150620001c28362000205565b9250827fffffffffffffffffffffffffffffffffffffffffffffffffffffffffffffffff03821115620001fa57620001f96200027d565b5b828201905092915050565b6000819050919050565b60005b838110156200022f57808201518184015260208101905062000212565b838111156200023f576000848401525b50505050565b6000620002528262000205565b91506200025f8362000205565b925082620002725762000271620002ac565b5b828206905092915050565b7f4e487b7100000000000000000000000000000000000000000000000000000000600052601160045260246000fd5b7f4e487b7100000000000000000000000000000000000000000000000000000000600052601260045260246000fd5b6000601f19601f8301169050919050565b6113e280620002fc6000396000f3fe6080604052600436106100555760003560e01c8063115b8c591461005a578063449d46c0146100975780635c0c4a60146100b35780639a2cdc08146100f0578063a30b9a5d1461011b578063bd43a90814610144575b600080fd5b34801561006657600080fd5b50610081600480360381019061007c9190610c2c565b61016f565b60405161008e9190611074565b60405180910390f35b6100b160048036038101906100ac9190610c55565b610187565b005b3480156100bf57600080fd5b506100da60048036038101906100d59190610c2c565b6105a4565b6040516100e79190611074565b60405180910390f35b3480156100fc57600080fd5b506101056105bc565b6040516101129190611074565b60405180910390f35b34801561012757600080fd5b50610142600480360381019061013d9190610c2c565b610607565b005b34801561015057600080fd5b50610159610689565b6040516101669190610f32565b60405180910390f35b60036020528060005260406000206000915090505481565b42610384600160003373ffffffffffffffffffffffffffffffffffffffff1673ffffffffffffffffffffffffffffffffffffffff168152602001908152602001600020546101d59190611191565b11610215576040517f08c379a000000000000000000000000000000000000000000000000000000000815260040161020c90611014565b60405180910390fd5b42600160003373ffffffffffffffffffffffffffffffffffffffff1673ffffffffffffffffffffffffffffffffffffffff1681526020019081526020016000208190555060016002600082825461026c9190611191565b925050819055506001600360003373ffffffffffffffffffffffffffffffffffffffff1673ffffffffffffffffffffffffffffffffffffffff16815260200190815260200160002060008282546102c39190611191565b925050819055506103096040518060400160405280600d81526020017f257320686173207761766564210000000000000000000000000000000000000081525033610873565b600460405180606001604052803373ffffffffffffffffffffffffffffffffffffffff16815260200183815260200142815250908060018154018082558091505060019003906000526020600020906003020160009091909190915060008201518160000160006101000a81548173ffffffffffffffffffffffffffffffffffffffff021916908373ffffffffffffffffffffffffffffffffffffffff16021790555060208201518160010190805190602001906103c8929190610b0c565b50604082015181600201555050606460005442446103e69190611191565b6103f09190611191565b6103fa9190611297565b60008190555061040b60005461090f565b603260005411610551576104546040518060400160405280600781526020017f257320776f6e210000000000000000000000000000000000000000000000000081525033610873565b6000655af3107a40009050804710156104a2576040517f08c379a000000000000000000000000000000000000000000000000000000000815260040161049990611034565b60405180910390fd5b60003373ffffffffffffffffffffffffffffffffffffffff16826040516104c890610f1d565b60006040518083038185875af1925050503d8060008114610505576040519150601f19603f3d011682016040523d82523d6000602084013e61050a565b606091505b505090508061054e576040517f08c379a000000000000000000000000000000000000000000000000000000000815260040161054590611054565b60405180910390fd5b50505b3373ffffffffffffffffffffffffffffffffffffffff167f5f7e16dc676677766a70e9c5628aa6c54ddb8b6e5188e2ae1e1f17f1ffbea716428360405161059992919061108f565b60405180910390a250565b60016020528060005260406000206000915090505481565b60006105ff6040518060400160405280601781526020017f5765206861766520256420746f74616c207761766573210000000000000000008152506002546109a8565b600254905090565b6106866040518060400160405280601681526020017f546869732025732077617665642025732074696d65730000000000000000000081525082600360008573ffffffffffffffffffffffffffffffffffffffff1673ffffffffffffffffffffffffffffffffffffffff16815260200190815260200160002054610a44565b50565b60606004805480602002602001604051908101604052809291908181526020016000905b828210156107d157838290600052602060002090600302016040518060600160405290816000820160009054906101000a900473ffffffffffffffffffffffffffffffffffffffff1673ffffffffffffffffffffffffffffffffffffffff1673ffffffffffffffffffffffffffffffffffffffff16815260200160018201805461073690611265565b80601f016020809104026020016040519081016040528092919081815260200182805461076290611265565b80156107af5780601f10610784576101008083540402835291602001916107af565b820191906000526020600020905b81548152906001019060200180831161079257829003601f168201915b50505050508152602001600282015481525050815260200190600101906106ad565b50505050905090565b610870816040516024016107ee9190610f54565b6040516020818303038152906040527f41304fac000000000000000000000000000000000000000000000000000000007bffffffffffffffffffffffffffffffffffffffffffffffffffffffff19166020820180517bffffffffffffffffffffffffffffffffffffffffffffffffffffffff8381831617835250505050610ae3565b50565b61090b8282604051602401610889929190610f76565b6040516020818303038152906040527f319af333000000000000000000000000000000000000000000000000000000007bffffffffffffffffffffffffffffffffffffffffffffffffffffffff19166020820180517bffffffffffffffffffffffffffffffffffffffffffffffffffffffff8381831617835250505050610ae3565b5050565b6109a5816040516024016109239190611074565b6040516020818303038152906040527ff5b1bba9000000000000000000000000000000000000000000000000000000007bffffffffffffffffffffffffffffffffffffffffffffffffffffffff19166020820180517bffffffffffffffffffffffffffffffffffffffffffffffffffffffff8381831617835250505050610ae3565b50565b610a4082826040516024016109be929190610fe4565b6040516020818303038152906040527f9710a9d0000000000000000000000000000000000000000000000000000000007bffffffffffffffffffffffffffffffffffffffffffffffffffffffff19166020820180517bffffffffffffffffffffffffffffffffffffffffffffffffffffffff8381831617835250505050610ae3565b5050565b610ade838383604051602401610a5c93929190610fa6565b6040516020818303038152906040527f07c81217000000000000000000000000000000000000000000000000000000007bffffffffffffffffffffffffffffffffffffffffffffffffffffffff19166020820180517bffffffffffffffffffffffffffffffffffffffffffffffffffffffff8381831617835250505050610ae3565b505050565b60008151905060006a636f6e736f6c652e6c6f679050602083016000808483855afa5050505050565b828054610b1890611265565b90600052602060002090601f016020900481019282610b3a5760008555610b81565b82601f10610b5357805160ff1916838001178555610b81565b82800160010185558215610b81579182015b82811115610b80578251825591602001919060010190610b65565b5b509050610b8e9190610b92565b5090565b5b80821115610bab576000816000905550600101610b93565b5090565b6000610bc2610bbd846110f0565b6110bf565b905082815260208101848484011115610bda57600080fd5b610be5848285611223565b509392505050565b600081359050610bfc81611395565b92915050565b600082601f830112610c1357600080fd5b8135610c23848260208601610baf565b91505092915050565b600060208284031215610c3e57600080fd5b6000610c4c84828501610bed565b91505092915050565b600060208284031215610c6757600080fd5b600082013567ffffffffffffffff811115610c8157600080fd5b610c8d84828501610c02565b91505092915050565b6000610ca28383610eaf565b905092915050565b610cb3816111e7565b82525050565b610cc2816111e7565b82525050565b6000610cd382611130565b610cdd8185611153565b935083602082028501610cef85611120565b8060005b85811015610d2b5784840389528151610d0c8582610c96565b9450610d1783611146565b925060208a01995050600181019050610cf3565b50829750879550505050505092915050565b6000610d488261113b565b610d52818561116f565b9350610d62818560208601611232565b610d6b81611384565b840191505092915050565b6000610d818261113b565b610d8b8185611180565b9350610d9b818560208601611232565b610da481611384565b840191505092915050565b6000610dbc602083611180565b91507f596f75206861766520746f20636f6f6c646f776e20666f722031356d696e73206000830152602082019050919050565b6000610dfc602c83611180565b91507f547279696e6720746f207769746864726177206d6f7265207468616e2074686560008301527f206163636f756e742068617300000000000000000000000000000000000000006020830152604082019050919050565b6000610e62601883611180565b91507f5072697a652063616e27742062652077697468647261776e00000000000000006000830152602082019050919050565b6000610ea2600083611164565b9150600082019050919050565b6000606083016000830151610ec76000860182610caa565b5060208301518482036020860152610edf8282610d3d565b9150506040830151610ef46040860182610eff565b508091505092915050565b610f0881611219565b82525050565b610f1781611219565b82525050565b6000610f2882610e95565b9150819050919050565b60006020820190508181036000830152610f4c8184610cc8565b905092915050565b60006020820190508181036000830152610f6e8184610d76565b905092915050565b60006040820190508181036000830152610f908185610d76565b9050610f9f6020830184610cb9565b9392505050565b60006060820190508181036000830152610fc08186610d76565b9050610fcf6020830185610cb9565b610fdc6040830184610f0e565b949350505050565b60006040820190508181036000830152610ffe8185610d76565b905061100d6020830184610f0e565b9392505050565b6000602082019050818103600083015261102d81610daf565b9050919050565b6000602082019050818103600083015261104d81610def565b9050919050565b6000602082019050818103600083015261106d81610e55565b9050919050565b60006020820190506110896000830184610f0e565b92915050565b60006040820190506110a46000830185610f0e565b81810360208301526110b68184610d76565b90509392505050565b6000604051905081810181811067ffffffffffffffff821117156110e6576110e5611355565b5b8060405250919050565b600067ffffffffffffffff82111561110b5761110a611355565b5b601f19601f8301169050602081019050919050565b6000819050602082019050919050565b600081519050919050565b600081519050919050565b6000602082019050919050565b600082825260208201905092915050565b600081905092915050565b600082825260208201905092915050565b600082825260208201905092915050565b600061119c82611219565b91506111a783611219565b9250827fffffffffffffffffffffffffffffffffffffffffffffffffffffffffffffffff038211156111dc576111db6112c8565b5b828201905092915050565b60006111f2826111f9565b9050919050565b600073ffffffffffffffffffffffffffffffffffffffff82169050919050565b6000819050919050565b82818337600083830152505050565b60005b83811015611250578082015181840152602081019050611235565b8381111561125f576000848401525b50505050565b6000600282049050600182168061127d57607f821691505b6020821081141561129157611290611326565b5b50919050565b60006112a282611219565b91506112ad83611219565b9250826112bd576112bc6112f7565b5b828206905092915050565b7f4e487b7100000000000000000000000000000000000000000000000000000000600052601160045260246000fd5b7f4e487b7100000000000000000000000000000000000000000000000000000000600052601260045260246000fd5b7f4e487b7100000000000000000000000000000000000000000000000000000000600052602260045260246000fd5b7f4e487b7100000000000000000000000000000000000000000000000000000000600052604160045260246000fd5b6000601f19601f8301169050919050565b61139e816111e7565b81146113a957600080fd5b5056fea2646970667358221220e72dd1c065c79f009dbb6c31762d1897b1e694ff7f2d48b847343dc876c79ecf64736f6c63430008000033596f20796f2c204920616d206120636f6e747261637420616d204920616d20736d617274",
  "linkReferences": {},
  "deployedLinkReferences": {}
}